:100000000C9446000C9465000C9465000C946500FB
:100010000C9465000C9465000C9465000C946500CC
:100020000C9465000C9465000C9465000C946500BC
:100030000C9465000C94B2010C9465000C9465005E
:100040000C9465000C9465000C9465000C9465009C
:100050000C9465000C9465000C9465000C9465008C
:100060000C9465000C9465000C9465000C9465007C
:100070000C9465000C9465000C9465000C9465006C
:100080000C9465000C9465000C94650011241FBE4F
:10009000CFEFD0E4DEBFCDBF11E0A0E0B1E0EAE8F1
:1000A000F7E000E00BBF02C007900D92A231B1074C
:1000B000D9F721E0A2E1B1E001C01D92AC31B20755
:1000C000E1F70E9486030C94C3030C940000CF93C5
:1000D000DF93CDB7DEB781E00E948E000000DF9194
:1000E000CF910895CF93DF93CDB7DEB784E690E04C
:1000F0000E94330188E30E948E0086E00E948E00F9
:100100008FE00E948E0081E00E948E008AE090E0E5
:100110000E9433010000DF91CF910895CF93DF93C8
:100120000F92CDB7DEB789838BE290E0FC0120818E
:100130008BE290E02F7BFC01208388E290E0298114
:10014000FC0120838BE290E0FC0120818BE290E0B7
:100150002068FC01208300008BE290E0FC012081FC
:100160008BE290E02F77FC01208382E090E00E94F8
:10017000330100000F90DF91CF910895CF93DF936B
:100180000F92CDB7DEB789838BE290E0FC0120812E
:100190008BE290E02064FC01208388E290E02981DA
:1001A000FC0120838BE290E0FC0120818BE290E057
:1001B0002068FC01208300008BE290E0FC0120819C
:1001C0008BE290E02F77FC01208381E090E00E9499
:1001D000330100000F90DF91CF910895CF93DF930B
:1001E00000D000D0CDB7DEB78A837C836B830E94BA
:1001F00067008A81898311C0898191E0980F998372
:100200000E941C018B819C819C012F5F3F4F3C838E
:100210002B83FC0180810E94BE008B819C81FC01AC
:100220008081882349F7000000000F900F900F9005
:100230000F90DF91CF910895CF93DF930F92CDB7B9
:10024000DEB789838981813128F4898181580E94B0
:100250008E0004C0898181550E948E0000000F909D
:10026000DF91CF910895CF93DF9300D000D000D0DD
:10027000CDB7DEB79E838D831A82198213C01C828C
:100280001B8206C000008B819C8101969C838B831E
:100290008B819C8187309340ACF389819A81019650
:1002A0009A83898329813A818D819E812817390714
:1002B00034F30000000026960FB6F894DEBF0FBEA0
:1002C000CDBFDF91CF910895CF93DF93CDB7DEB748
:1002D00081E890E02BE0FC01208388E890E02DE7A6
:1002E00030E0FC01318320838FE690E022E0FC01C6
:1002F000208384E890E0FC0111821082809100014B
:1003000090910101A0910201B0910301809313012A
:1003100090931401A0931501B09316018FE590E01E
:10032000FC0120818FE590E02068FC012083000023
:10033000DF91CF910895CF93DF93CDB7DEB781E8FA
:1003400090E0FC0110820000DF91CF910895CF93DF
:10035000DF93CDB7DEB781E0809312010000DF911B
:10036000CF9108951F920F920FB60F9211240BB6E2
:100370000F922F933F934F935F936F937F938F933E
:100380009F93AF93BF93EF93FF93CF93DF93CDB73B
:10039000DEB78091130190911401A0911501B091E5
:1003A00016010197A109B1098093130190931401DB
:1003B000A0931501B093160180911301909114013F
:1003C000A0911501B0911601892B8A2B8B2B91F4EA
:1003D0000E94A7018091000190910101A09102016A
:1003E000B09103018093130190931401A093150120
:1003F000B09316010000DF91CF91FF91EF91BF9173
:10040000AF919F918F917F916F915F914F913F91AC
:100410002F910F900BBE0F900FBE0F901F9018954D
:10042000CF93DF9300D000D0CDB7DEB769837A8356
:100430008B839C8389819A81AB81BC8180930001ED
:1004400090930101A0930201B093030180910001F8
:1004500090910101A0910201B091030180931301D9
:1004600090931401A0931501B093160100000F9012
:100470000F900F900F90DF91CF910895CF93DF935E
:1004800000D00F92CDB7DEB789837B836A838981E1
:100490008A3031F48A819B81BC018DE00E943E024A
:1004A00080EC90E0FC018081882F90E08072992799
:1004B000892BB1F386EC90E02981FC01208380E058
:1004C00090E00F900F900F90DF91CF910895CF9310
:1004D000DF93CDB7DEB70E94670080E290E0FC01B9
:1004E0008081882F90E08170992721E0892B09F085
:1004F00020E0822F8093180180E290E0FC0180814F
:10050000809582708093190180911A0190911B014E
:100510008530910541F18630910508F0BFC08430E7
:10052000910509F4A4C08530910508F0B7C0833067
:10053000910509F48AC08430910508F0AFC082307B
:10054000910509F45DC08330910508F0A7C00097BC
:1005500019F00197F9F0A2C085E090E090931B019B
:1005600080931A019BC080911801882339F083E0A1
:1005700090E090931B0180931A018BC08091190128
:10058000882309F486C084E090E090931B01809357
:100590001A017FC080911801882339F083E090E030
:1005A00090931B0180931A0176C0809119018823D2
:1005B00039F084E090E090931B0180931A016BC0A6
:1005C00080911801882359F480911901882339F406
:1005D00082E090E090931B0180931A015CC08091AF
:1005E0001801882309F457C080911901882309F460
:1005F00052C085E090E090931B0180931A014BC09C
:1006000080911801882359F080911901882339F0CD
:1006100085E090E090931B0180931A013EC0809189
:100620001801882339F083E090E090931B018093B8
:100630001A0133C080911901882379F184E090E098
:1006400090931B0180931A0128C080911801882380
:1006500039F080911901882319F085E090E002C0FB
:1006600081E090E090931B0180931A0117C0809164
:100670001801882339F080911901882319F085E049
:1006800090E002C081E090E090931B0180931A01FA
:1006900005C0000003C0000001C0000080911A01E5
:1006A00090911B018530910561F08630910518F518
:1006B0008430910599F085309105E8F4039721F095
:1006C0001AC01092170117C080911701893081F06C
:1006D000809117018F5F809317010DC080911701E2
:1006E000882341F08091170181508093170103C046
:1006F000000001C0000080911701882F90E0C09693
:100700000E94BE000000DF91CF910895CF93DF9348
:10071000CDB7DEB781E290E0FC01108282E290E08A
:100720002FEFFC01208387E290E02FEFFC01208374
:1007300088E290E0FC0110828AE290E02FEFFC0159
:1007400020838BE290E02FEFFC01208364E670E0D1
:1007500080E090E00E9410020E9464010E947200FA
:100760000E94670081E00E941C0110921B01109200
:100770001A010E9467020000809112018823E1F3B0
:0A07800010921201F6CFF894FFCF9B
:10078A000100000000000002000000003E0200001C
:02079A0000005D
:00000001FF
